{
  "abi": [
    {
      "inputs": [],
      "name": "LENGTH_REGISTRATION_IN_BLOCKS",
      "outputs": [
        {
          "internalType": "uint256",
          "name": "",
          "type": "uint256"
        }
      ],
      "stateMutability": "view",
      "type": "function"
    },
    {
      "inputs": [],
      "name": "LENGTH_VOTING_IN_BLOCKS",
      "outputs": [
        {
          "internalType": "uint256",
          "name": "",
          "type": "uint256"
        }
      ],
      "stateMutability": "view",
      "type": "function"
    },
    {
      "inputs": [],
      "name": "MAX_NUMBER_CANDIDATES",
      "outputs": [
        {
          "internalType": "uint256",
          "name": "",
          "type": "uint256"
        }
      ],
      "stateMutability": "view",
      "type": "function"
    },
    {
      "inputs": [
        {
          "internalType": "address",
          "name": "",
          "type": "address"
        }
      ],
      "name": "accountToVotesReceived",
      "outputs": [
        {
          "internalType": "uint256",
          "name": "",
          "type": "uint256"
        }
      ],
      "stateMutability": "view",
      "type": "function"
    },
    {
      "inputs": [],
      "name": "endRegistration",
      "outputs": [
        {
          "internalType": "uint256",
          "name": "",
          "type": "uint256"
        }
      ],
      "stateMutability": "view",
      "type": "function"
    },
    {
      "inputs": [],
      "name": "endVoting",
      "outputs": [
        {
          "internalType": "uint256",
          "name": "",
          "type": "uint256"
        }
      ],
      "stateMutability": "view",
      "type": "function"
    },
    {
      "inputs": [],
      "name": "getNumberCandidates",
      "outputs": [
        {
          "internalType": "uint256",
          "name": "",
          "type": "uint256"
        }
      ],
      "stateMutability": "view",
      "type": "function"
    },
    {
      "inputs": [],
      "name": "getResults",
      "outputs": [
        {
          "internalType": "address[5]",
          "name": "",
          "type": "address[5]"
        },
        {
          "internalType": "uint256[5]",
          "name": "",
          "type": "uint256[5]"
        }
      ],
      "stateMutability": "view",
      "type": "function"
    },
    {
      "inputs": [],
      "name": "initiateElection",
      "outputs": [],
      "stateMutability": "nonpayable",
      "type": "function"
    },
    {
      "inputs": [],
      "name": "signupAsCandidate",
      "outputs": [],
      "stateMutability": "nonpayable",
      "type": "function"
    },
    {
      "inputs": [],
      "name": "startRegistration",
      "outputs": [
        {
          "internalType": "uint256",
          "name": "",
          "type": "uint256"
        }
      ],
      "stateMutability": "view",
      "type": "function"
    },
    {
      "inputs": [
        {
          "internalType": "address",
          "name": "candidate",
          "type": "address"
        }
      ],
      "name": "vote",
      "outputs": [],
      "stateMutability": "nonpayable",
      "type": "function"
    }
  ],
  "bytecode": "6080604052600080556000600155600060025534801561001e57600080fd5b50610a4d8061002e6000396000f3fe608060405234801561001057600080fd5b50600436106100b45760003560e01c8063493f584c11610071578063493f584c1461011a5780634a8a62ab1461012257806358cb805b1461012a5780636dd7d8ea1461013257806382e5dae514610145578063c3403ddf1461014d576100b4565b80630ff9e259146100b957806310b86695146100c35780631c599396146100e157806339df9932146100e95780633bdac454146100fc5780634717f97c14610104575b600080fd5b6100c1610155565b005b6100cb6101b7565b6040516100d891906109c5565b60405180910390f35b6100cb6101bd565b6100cb6100f73660046106d3565b6101c2565b6100cb6101d4565b61010c6101d9565b6040516100d8929190610701565b6100cb610304565b6100cb61030a565b6100cb610310565b6100c16101403660046106d3565b610315565b6100c161044e565b6100cb610520565b600254431161017f5760405162461bcd60e51b815260040161017690610849565b60405180910390fd5b436000819055610191906014906109ce565b60018190556101a2906032906109ce565b6002556101ad610526565b6101b561066b565b565b60005481565b603281565b60076020526000908152604090205481565b601481565b6101e1610683565b6101e9610683565b6101f1610683565b6101f9610683565b60005b6004548110156102fa576004818154811061022757634e487b7160e01b600052603260045260246000fd5b6000918252602090912001546001600160a01b031683826005811061025c57634e487b7160e01b600052603260045260246000fd5b60200201906001600160a01b031690816001600160a01b031681525050600760006004838154811061029e57634e487b7160e01b600052603260045260246000fd5b60009182526020808320909101546001600160a01b031683528201929092526040019020548282600581106102e357634e487b7160e01b600052603260045260246000fd5b6020020152806102f2816109e6565b9150506101fc565b5090925090509091565b60045490565b60015481565b600581565b60015443116103365760405162461bcd60e51b8152600401610176906107fb565b6002544311156103585760405162461bcd60e51b815260040161017690610892565b6001600160a01b03811660009081526006602052604090205460ff166103905760405162461bcd60e51b815260040161017690610977565b3360009081526005602052604090205460ff16156103c05760405162461bcd60e51b815260040161017690610767565b336000908152600560209081526040808320805460ff191660019081179091556001600160a01b0385168452600790925282208054919290916104049084906109ce565b9091555050600380546001810182556000919091527fc2575a0e9e593c00f959f8c92f12db2869c3395a3b0502d05e2516446f71f85b0180546001600160a01b0319163317905550565b6001544311156104705760405162461bcd60e51b81526004016101769061079e565b6004546005116104925760405162461bcd60e51b81526004016101769061091a565b3360009081526006602052604090205460ff16156104c25760405162461bcd60e51b8152600401610176906108bd565b336000818152600660205260408120805460ff191660019081179091556004805491820181559091527f8a35acfbc15ff81a39ae7d344fd709f28e8600b4aa8c65c6b64bfe7fe36bd19b0180546001600160a01b0319169091179055565b60025481565b60005b6004548110156105ed576000600660006004848154811061055a57634e487b7160e01b600052603260045260246000fd5b6000918252602080832091909101546001600160a01b031683528201929092526040018120805460ff191692151592909217909155600480546007918391859081106105b657634e487b7160e01b600052603260045260246000fd5b60009182526020808320909101546001600160a01b03168352820192909252604001902055806105e5816109e6565b915050610529565b5060005b600354811015610668576000600560006003848154811061062257634e487b7160e01b600052603260045260246000fd5b6000918252602080832091909101546001600160a01b031683528201929092526040019020805460ff191691151591909117905580610660816109e6565b9150506105f1565b50565b610677600360006106a1565b6101b5600460006106a1565b6040518060a001604052806005906020820280368337509192915050565b508054600082559060005260206000209081019061066891905b808211156106cf57600081556001016106bb565b5090565b6000602082840312156106e4578081fd5b81356001600160a01b03811681146106fa578182fd5b9392505050565b6101408101818460005b60058110156107335781516001600160a01b031683526020928301929091019060010161070b565b50505060a082018360005b600581101561075d57815183526020928301929091019060010161073e565b5050509392505050565b60208082526017908201527f596f75206861766520616c726561647920766f7465642e000000000000000000604082015260600190565b6020808252603c908201527f596f752063616e206e6f206c6f6e67657220726567697374657220617320612060408201527f63616e64696461746520666f72207468697320656c656374696f6e2e00000000606082015260800190565b6020808252602e908201527f50617469656e63652c2074686520726567697374726174696f6e20706572696f60408201526d64206973206e6f74206f7665722160901b606082015260800190565b60208082526029908201527f50617469656e63652c207468652063757272656e7420766f74696e67206973206040820152683737ba1037bb32b91760b91b606082015260800190565b6020808252601190820152702a3432903b37ba329034b99037bb32b91760791b604082015260600190565b6020808252603c908201527f596f752061726520616c7265616479207265676973746572656420617320612060408201527f63616e64696461746520666f72207468697320656c656374696f6e2e00000000606082015260800190565b60208082526037908201527f4d6178696d756d206e756d626572206f662063616e646964617465732072656160408201527f6368656420666f72207468697320656c656374696f6e2e000000000000000000606082015260800190565b6020808252602e908201527f546869732061646472657373206973206e6f742072656769737465726564206160408201526d3990309031b0b73234b230ba329760911b606082015260800190565b90815260200190565b600082198211156109e1576109e1610a01565b500190565b60006000198214156109fa576109fa610a01565b5060010190565b634e487b7160e01b600052601160045260246000fdfea2646970667358221220051c1c2d3fdb1982f70c8201703568b891c61f85366a3bcde79e70026f9a23bd64736f6c63430008000033",
  "bytecodeSha1": "e51bc3df9cf1b9129d39a4eab5b179d6153282ad",
  "compiler": {
    "evm_version": "istanbul",
    "optimizer": {
      "enabled": true,
      "runs": 200
    },
    "version": "0.8.0+commit.c7dfd78e"
  },
  "contractName": "Vote",
  "language": "Solidity",
  "natspec": {
    "kind": "dev",
    "methods": {},
    "version": 1
  },
  "opcodes": "PUSH1 0x80 PUSH1 0x40 MSTORE CALLVALUE DUP1 ISZERO PUSH2 0x10 JUMPI PUSH1 0x0 DUP1 REVERT JUMPDEST POP PUSH1 0x4 CALLDATASIZE LT PUSH2 0xB4 JUMPI PUSH1 0x0 CALLDATALOAD PUSH1 0xE0 SHR DUP1 PUSH4 0x493F584C GT PUSH2 0x71 JUMPI DUP1 PUSH4 0x493F584C EQ PUSH2 0x11A JUMPI DUP1 PUSH4 0x4A8A62AB EQ PUSH2 0x122 JUMPI DUP1 PUSH4 0x58CB805B EQ PUSH2 0x12A JUMPI DUP1 PUSH4 0x6DD7D8EA EQ PUSH2 0x132 JUMPI DUP1 PUSH4 0x82E5DAE5 EQ PUSH2 0x145 JUMPI DUP1 PUSH4 0xC3403DDF EQ PUSH2 0x14D JUMPI PUSH2 0xB4 JUMP JUMPDEST DUP1 PUSH4 0xFF9E259 EQ PUSH2 0xB9 JUMPI DUP1 PUSH4 0x10B86695 EQ PUSH2 0xC3 JUMPI DUP1 PUSH4 0x1C599396 EQ PUSH2 0xE1 JUMPI DUP1 PUSH4 0x39DF9932 EQ PUSH2 0xE9 JUMPI DUP1 PUSH4 0x3BDAC454 EQ PUSH2 0xFC JUMPI DUP1 PUSH4 0x4717F97C EQ PUSH2 0x104 JUMPI JUMPDEST PUSH1 0x0 DUP1 REVERT JUMPDEST PUSH2 0xC1 PUSH2 0x155 JUMP JUMPDEST STOP JUMPDEST PUSH2 0xCB PUSH2 0x1B7 JUMP JUMPDEST PUSH1 0x40 MLOAD PUSH2 0xD8 SWAP2 SWAP1 PUSH2 0x9C5 JUMP JUMPDEST PUSH1 0x40 MLOAD DUP1 SWAP2 SUB SWAP1 RETURN JUMPDEST PUSH2 0xCB PUSH2 0x1BD JUMP JUMPDEST PUSH2 0xCB PUSH2 0xF7 CALLDATASIZE PUSH1 0x4 PUSH2 0x6D3 JUMP JUMPDEST PUSH2 0x1C2 JUMP JUMPDEST PUSH2 0xCB PUSH2 0x1D4 JUMP JUMPDEST PUSH2 0x10C PUSH2 0x1D9 JUMP JUMPDEST PUSH1 0x40 MLOAD PUSH2 0xD8 SWAP3 SWAP2 SWAP1 PUSH2 0x701 JUMP JUMPDEST PUSH2 0xCB PUSH2 0x304 JUMP JUMPDEST PUSH2 0xCB PUSH2 0x30A JUMP JUMPDEST PUSH2 0xCB PUSH2 0x310 JUMP JUMPDEST PUSH2 0xC1 PUSH2 0x140 CALLDATASIZE PUSH1 0x4 PUSH2 0x6D3 JUMP JUMPDEST PUSH2 0x315 JUMP JUMPDEST PUSH2 0xC1 PUSH2 0x44E JUMP JUMPDEST PUSH2 0xCB PUSH2 0x520 JUMP JUMPDEST PUSH1 0x2 SLOAD NUMBER GT PUSH2 0x17F JUMPI PUSH1 0x40 MLOAD PUSH3 0x461BCD PUSH1 0xE5 SHL DUP2 MSTORE PUSH1 0x4 ADD PUSH2 0x176 SWAP1 PUSH2 0x849 JUMP JUMPDEST PUSH1 0x40 MLOAD DUP1 SWAP2 SUB SWAP1 REVERT JUMPDEST NUMBER PUSH1 0x0 DUP2 SWAP1 SSTORE PUSH2 0x191 SWAP1 PUSH1 0x14 SWAP1 PUSH2 0x9CE JUMP JUMPDEST PUSH1 0x1 DUP2 SWAP1 SSTORE PUSH2 0x1A2 SWAP1 PUSH1 0x32 SWAP1 PUSH2 0x9CE JUMP JUMPDEST PUSH1 0x2 SSTORE PUSH2 0x1AD PUSH2 0x526 JUMP JUMPDEST PUSH2 0x1B5 PUSH2 0x66B JUMP JUMPDEST JUMP JUMPDEST PUSH1 0x0 SLOAD DUP2 JUMP JUMPDEST PUSH1 0x32 DUP2 JUMP JUMPDEST PUSH1 0x7 PUSH1 0x20 MSTORE PUSH1 0x0 SWAP1 DUP2 MSTORE PUSH1 0x40 SWAP1 KECCAK256 SLOAD DUP2 JUMP JUMPDEST PUSH1 0x14 DUP2 JUMP JUMPDEST PUSH2 0x1E1 PUSH2 0x683 JUMP JUMPDEST PUSH2 0x1E9 PUSH2 0x683 JUMP JUMPDEST PUSH2 0x1F1 PUSH2 0x683 JUMP JUMPDEST PUSH2 0x1F9 PUSH2 0x683 JUMP JUMPDEST PUSH1 0x0 JUMPDEST PUSH1 0x4 SLOAD DUP2 LT ISZERO PUSH2 0x2FA JUMPI PUSH1 0x4 DUP2 DUP2 SLOAD DUP2 LT PUSH2 0x227 JUMPI PUSH4 0x4E487B71 PUSH1 0xE0 SHL PUSH1 0x0 MSTORE PUSH1 0x32 PUSH1 0x4 MSTORE PUSH1 0x24 PUSH1 0x0 REVERT JUMPDEST PUSH1 0x0 SWAP2 DUP3 MSTORE PUSH1 0x20 SWAP1 SWAP2 KECCAK256 ADD SLOAD PUSH1 0x1 PUSH1 0x1 PUSH1 0xA0 SHL SUB AND DUP4 DUP3 PUSH1 0x5 DUP2 LT PUSH2 0x25C JUMPI PUSH4 0x4E487B71 PUSH1 0xE0 SHL PUSH1 0x0 MSTORE PUSH1 0x32 PUSH1 0x4 MSTORE PUSH1 0x24 PUSH1 0x0 REVERT JUMPDEST PUSH1 0x20 MUL ADD SWAP1 PUSH1 0x1 PUSH1 0x1 PUSH1 0xA0 SHL SUB AND SWAP1 DUP2 PUSH1 0x1 PUSH1 0x1 PUSH1 0xA0 SHL SUB AND DUP2 MSTORE POP POP PUSH1 0x7 PUSH1 0x0 PUSH1 0x4 DUP4 DUP2 SLOAD DUP2 LT PUSH2 0x29E JUMPI PUSH4 0x4E487B71 PUSH1 0xE0 SHL PUSH1 0x0 MSTORE PUSH1 0x32 PUSH1 0x4 MSTORE PUSH1 0x24 PUSH1 0x0 REVERT JUMPDEST PUSH1 0x0 SWAP2 DUP3 MSTORE PUSH1 0x20 DUP1 DUP4 KECCAK256 SWAP1 SWAP2 ADD SLOAD PUSH1 0x1 PUSH1 0x1 PUSH1 0xA0 SHL SUB AND DUP4 MSTORE DUP3 ADD SWAP3 SWAP1 SWAP3 MSTORE PUSH1 0x40 ADD SWAP1 KECCAK256 SLOAD DUP3 DUP3 PUSH1 0x5 DUP2 LT PUSH2 0x2E3 JUMPI PUSH4 0x4E487B71 PUSH1 0xE0 SHL PUSH1 0x0 MSTORE PUSH1 0x32 PUSH1 0x4 MSTORE PUSH1 0x24 PUSH1 0x0 REVERT JUMPDEST PUSH1 0x20 MUL ADD MSTORE DUP1 PUSH2 0x2F2 DUP2 PUSH2 0x9E6 JUMP JUMPDEST SWAP2 POP POP PUSH2 0x1FC JUMP JUMPDEST POP SWAP1 SWAP3 POP SWAP1 POP SWAP1 SWAP2 JUMP JUMPDEST PUSH1 0x4 SLOAD SWAP1 JUMP JUMPDEST PUSH1 0x1 SLOAD DUP2 JUMP JUMPDEST PUSH1 0x5 DUP2 JUMP JUMPDEST PUSH1 0x1 SLOAD NUMBER GT PUSH2 0x336 JUMPI PUSH1 0x40 MLOAD PUSH3 0x461BCD PUSH1 0xE5 SHL DUP2 MSTORE PUSH1 0x4 ADD PUSH2 0x176 SWAP1 PUSH2 0x7FB JUMP JUMPDEST PUSH1 0x2 SLOAD NUMBER GT ISZERO PUSH2 0x358 JUMPI PUSH1 0x40 MLOAD PUSH3 0x461BCD PUSH1 0xE5 SHL DUP2 MSTORE PUSH1 0x4 ADD PUSH2 0x176 SWAP1 PUSH2 0x892 JUMP JUMPDEST PUSH1 0x1 PUSH1 0x1 PUSH1 0xA0 SHL SUB DUP2 AND PUSH1 0x0 SWAP1 DUP2 MSTORE PUSH1 0x6 PUSH1 0x20 MSTORE PUSH1 0x40 SWAP1 KECCAK256 SLOAD PUSH1 0xFF AND PUSH2 0x390 JUMPI PUSH1 0x40 MLOAD PUSH3 0x461BCD PUSH1 0xE5 SHL DUP2 MSTORE PUSH1 0x4 ADD PUSH2 0x176 SWAP1 PUSH2 0x977 JUMP JUMPDEST CALLER PUSH1 0x0 SWAP1 DUP2 MSTORE PUSH1 0x5 PUSH1 0x20 MSTORE PUSH1 0x40 SWAP1 KECCAK256 SLOAD PUSH1 0xFF AND ISZERO PUSH2 0x3C0 JUMPI PUSH1 0x40 MLOAD PUSH3 0x461BCD PUSH1 0xE5 SHL DUP2 MSTORE PUSH1 0x4 ADD PUSH2 0x176 SWAP1 PUSH2 0x767 JUMP JUMPDEST CALLER PUSH1 0x0 SWAP1 DUP2 MSTORE PUSH1 0x5 PUSH1 0x20 SWAP1 DUP2 MSTORE PUSH1 0x40 DUP1 DUP4 KECCAK256 DUP1 SLOAD PUSH1 0xFF NOT AND PUSH1 0x1 SWAP1 DUP2 OR SWAP1 SWAP2 SSTORE PUSH1 0x1 PUSH1 0x1 PUSH1 0xA0 SHL SUB DUP6 AND DUP5 MSTORE PUSH1 0x7 SWAP1 SWAP3 MSTORE DUP3 KECCAK256 DUP1 SLOAD SWAP2 SWAP3 SWAP1 SWAP2 PUSH2 0x404 SWAP1 DUP5 SWAP1 PUSH2 0x9CE JUMP JUMPDEST SWAP1 SWAP2 SSTORE POP POP PUSH1 0x3 DUP1 SLOAD PUSH1 0x1 DUP2 ADD DUP3 SSTORE PUSH1 0x0 SWAP2 SWAP1 SWAP2 MSTORE PUSH32 0xC2575A0E9E593C00F959F8C92F12DB2869C3395A3B0502D05E2516446F71F85B ADD DUP1 SLOAD PUSH1 0x1 PUSH1 0x1 PUSH1 0xA0 SHL SUB NOT AND CALLER OR SWAP1 SSTORE POP JUMP JUMPDEST PUSH1 0x1 SLOAD NUMBER GT ISZERO PUSH2 0x470 JUMPI PUSH1 0x40 MLOAD PUSH3 0x461BCD PUSH1 0xE5 SHL DUP2 MSTORE PUSH1 0x4 ADD PUSH2 0x176 SWAP1 PUSH2 0x79E JUMP JUMPDEST PUSH1 0x4 SLOAD PUSH1 0x5 GT PUSH2 0x492 JUMPI PUSH1 0x40 MLOAD PUSH3 0x461BCD PUSH1 0xE5 SHL DUP2 MSTORE PUSH1 0x4 ADD PUSH2 0x176 SWAP1 PUSH2 0x91A JUMP JUMPDEST CALLER PUSH1 0x0 SWAP1 DUP2 MSTORE PUSH1 0x6 PUSH1 0x20 MSTORE PUSH1 0x40 SWAP1 KECCAK256 SLOAD PUSH1 0xFF AND ISZERO PUSH2 0x4C2 JUMPI PUSH1 0x40 MLOAD PUSH3 0x461BCD PUSH1 0xE5 SHL DUP2 MSTORE PUSH1 0x4 ADD PUSH2 0x176 SWAP1 PUSH2 0x8BD JUMP JUMPDEST CALLER PUSH1 0x0 DUP2 DUP2 MSTORE PUSH1 0x6 PUSH1 0x20 MSTORE PUSH1 0x40 DUP2 KECCAK256 DUP1 SLOAD PUSH1 0xFF NOT AND PUSH1 0x1 SWAP1 DUP2 OR SWAP1 SWAP2 SSTORE PUSH1 0x4 DUP1 SLOAD SWAP2 DUP3 ADD DUP2 SSTORE SWAP1 SWAP2 MSTORE PUSH32 0x8A35ACFBC15FF81A39AE7D344FD709F28E8600B4AA8C65C6B64BFE7FE36BD19B ADD DUP1 SLOAD PUSH1 0x1 PUSH1 0x1 PUSH1 0xA0 SHL SUB NOT AND SWAP1 SWAP2 OR SWAP1 SSTORE JUMP JUMPDEST PUSH1 0x2 SLOAD DUP2 JUMP JUMPDEST PUSH1 0x0 JUMPDEST PUSH1 0x4 SLOAD DUP2 LT ISZERO PUSH2 0x5ED JUMPI PUSH1 0x0 PUSH1 0x6 PUSH1 0x0 PUSH1 0x4 DUP5 DUP2 SLOAD DUP2 LT PUSH2 0x55A JUMPI PUSH4 0x4E487B71 PUSH1 0xE0 SHL PUSH1 0x0 MSTORE PUSH1 0x32 PUSH1 0x4 MSTORE PUSH1 0x24 PUSH1 0x0 REVERT JUMPDEST PUSH1 0x0 SWAP2 DUP3 MSTORE PUSH1 0x20 DUP1 DUP4 KECCAK256 SWAP2 SWAP1 SWAP2 ADD SLOAD PUSH1 0x1 PUSH1 0x1 PUSH1 0xA0 SHL SUB AND DUP4 MSTORE DUP3 ADD SWAP3 SWAP1 SWAP3 MSTORE PUSH1 0x40 ADD DUP2 KECCAK256 DUP1 SLOAD PUSH1 0xFF NOT AND SWAP3 ISZERO ISZERO SWAP3 SWAP1 SWAP3 OR SWAP1 SWAP2 SSTORE PUSH1 0x4 DUP1 SLOAD PUSH1 0x7 SWAP2 DUP4 SWAP2 DUP6 SWAP1 DUP2 LT PUSH2 0x5B6 JUMPI PUSH4 0x4E487B71 PUSH1 0xE0 SHL PUSH1 0x0 MSTORE PUSH1 0x32 PUSH1 0x4 MSTORE PUSH1 0x24 PUSH1 0x0 REVERT JUMPDEST PUSH1 0x0 SWAP2 DUP3 MSTORE PUSH1 0x20 DUP1 DUP4 KECCAK256 SWAP1 SWAP2 ADD SLOAD PUSH1 0x1 PUSH1 0x1 PUSH1 0xA0 SHL SUB AND DUP4 MSTORE DUP3 ADD SWAP3 SWAP1 SWAP3 MSTORE PUSH1 0x40 ADD SWAP1 KECCAK256 SSTORE DUP1 PUSH2 0x5E5 DUP2 PUSH2 0x9E6 JUMP JUMPDEST SWAP2 POP POP PUSH2 0x529 JUMP JUMPDEST POP PUSH1 0x0 JUMPDEST PUSH1 0x3 SLOAD DUP2 LT ISZERO PUSH2 0x668 JUMPI PUSH1 0x0 PUSH1 0x5 PUSH1 0x0 PUSH1 0x3 DUP5 DUP2 SLOAD DUP2 LT PUSH2 0x622 JUMPI PUSH4 0x4E487B71 PUSH1 0xE0 SHL PUSH1 0x0 MSTORE PUSH1 0x32 PUSH1 0x4 MSTORE PUSH1 0x24 PUSH1 0x0 REVERT JUMPDEST PUSH1 0x0 SWAP2 DUP3 MSTORE PUSH1 0x20 DUP1 DUP4 KECCAK256 SWAP2 SWAP1 SWAP2 ADD SLOAD PUSH1 0x1 PUSH1 0x1 PUSH1 0xA0 SHL SUB AND DUP4 MSTORE DUP3 ADD SWAP3 SWAP1 SWAP3 MSTORE PUSH1 0x40 ADD SWAP1 KECCAK256 DUP1 SLOAD PUSH1 0xFF NOT AND SWAP2 ISZERO ISZERO SWAP2 SWAP1 SWAP2 OR SWAP1 SSTORE DUP1 PUSH2 0x660 DUP2 PUSH2 0x9E6 JUMP JUMPDEST SWAP2 POP POP PUSH2 0x5F1 JUMP JUMPDEST POP JUMP JUMPDEST PUSH2 0x677 PUSH1 0x3 PUSH1 0x0 PUSH2 0x6A1 JUMP JUMPDEST PUSH2 0x1B5 PUSH1 0x4 PUSH1 0x0 PUSH2 0x6A1 JUMP JUMPDEST PUSH1 0x40 MLOAD DUP1 PUSH1 0xA0 ADD PUSH1 0x40 MSTORE DUP1 PUSH1 0x5 SWAP1 PUSH1 0x20 DUP3 MUL DUP1 CALLDATASIZE DUP4 CALLDATACOPY POP SWAP2 SWAP3 SWAP2 POP POP JUMP JUMPDEST POP DUP1 SLOAD PUSH1 0x0 DUP3 SSTORE SWAP1 PUSH1 0x0 MSTORE PUSH1 0x20 PUSH1 0x0 KECCAK256 SWAP1 DUP2 ADD SWAP1 PUSH2 0x668 SWAP2 SWAP1 JUMPDEST DUP1 DUP3 GT ISZERO PUSH2 0x6CF JUMPI PUSH1 0x0 DUP2 SSTORE PUSH1 0x1 ADD PUSH2 0x6BB JUMP JUMPDEST POP SWAP1 JUMP JUMPDEST PUSH1 0x0 PUSH1 0x20 DUP3 DUP5 SUB SLT ISZERO PUSH2 0x6E4 JUMPI DUP1 DUP2 REVERT JUMPDEST DUP2 CALLDATALOAD PUSH1 0x1 PUSH1 0x1 PUSH1 0xA0 SHL SUB DUP2 AND DUP2 EQ PUSH2 0x6FA JUMPI DUP2 DUP3 REVERT JUMPDEST SWAP4 SWAP3 POP POP POP JUMP JUMPDEST PUSH2 0x140 DUP2 ADD DUP2 DUP5 PUSH1 0x0 JUMPDEST PUSH1 0x5 DUP2 LT ISZERO PUSH2 0x733 JUMPI DUP2 MLOAD PUSH1 0x1 PUSH1 0x1 PUSH1 0xA0 SHL SUB AND DUP4 MSTORE PUSH1 0x20 SWAP3 DUP4 ADD SWAP3 SWAP1 SWAP2 ADD SWAP1 PUSH1 0x1 ADD PUSH2 0x70B JUMP JUMPDEST POP POP POP PUSH1 0xA0 DUP3 ADD DUP4 PUSH1 0x0 JUMPDEST PUSH1 0x5 DUP2 LT ISZERO PUSH2 0x75D JUMPI DUP2 MLOAD DUP4 MSTORE PUSH1 0x20 SWAP3 DUP4 ADD SWAP3 SWAP1 SWAP2 ADD SWAP1 PUSH1 0x1 ADD PUSH2 0x73E JUMP JUMPDEST POP POP POP SWAP4 SWAP3 POP POP POP JUMP JUMPDEST PUSH1 0x20 DUP1 DUP3 MSTORE PUSH1 0x17 SWAP1 DUP3 ADD MSTORE PUSH32 0x596F75206861766520616C726561647920766F7465642E000000000000000000 PUSH1 0x40 DUP3 ADD MSTORE PUSH1 0x60 ADD SWAP1 JUMP JUMPDEST PUSH1 0x20 DUP1 DUP3 MSTORE PUSH1 0x3C SWAP1 DUP3 ADD MSTORE PUSH32 0x596F752063616E206E6F206C6F6E676572207265676973746572206173206120 PUSH1 0x40 DUP3 ADD MSTORE PUSH32 0x63616E64696461746520666F72207468697320656C656374696F6E2E00000000 PUSH1 0x60 DUP3 ADD MSTORE PUSH1 0x80 ADD SWAP1 JUMP JUMPDEST PUSH1 0x20 DUP1 DUP3 MSTORE PUSH1 0x2E SWAP1 DUP3 ADD MSTORE PUSH32 0x50617469656E63652C2074686520726567697374726174696F6E20706572696F PUSH1 0x40 DUP3 ADD MSTORE PUSH14 0x64206973206E6F74206F76657221 PUSH1 0x90 SHL PUSH1 0x60 DUP3 ADD MSTORE PUSH1 0x80 ADD SWAP1 JUMP JUMPDEST PUSH1 0x20 DUP1 DUP3 MSTORE PUSH1 0x29 SWAP1 DUP3 ADD MSTORE PUSH32 0x50617469656E63652C207468652063757272656E7420766F74696E6720697320 PUSH1 0x40 DUP3 ADD MSTORE PUSH9 0x3737BA1037BB32B917 PUSH1 0xB9 SHL PUSH1 0x60 DUP3 ADD MSTORE PUSH1 0x80 ADD SWAP1 JUMP JUMPDEST PUSH1 0x20 DUP1 DUP3 MSTORE PUSH1 0x11 SWAP1 DUP3 ADD MSTORE PUSH17 0x2A3432903B37BA329034B99037BB32B917 PUSH1 0x79 SHL PUSH1 0x40 DUP3 ADD MSTORE PUSH1 0x60 ADD SWAP1 JUMP JUMPDEST PUSH1 0x20 DUP1 DUP3 MSTORE PUSH1 0x3C SWAP1 DUP3 ADD MSTORE PUSH32 0x596F752061726520616C72656164792072656769737465726564206173206120 PUSH1 0x40 DUP3 ADD MSTORE PUSH32 0x63616E64696461746520666F72207468697320656C656374696F6E2E00000000 PUSH1 0x60 DUP3 ADD MSTORE PUSH1 0x80 ADD SWAP1 JUMP JUMPDEST PUSH1 0x20 DUP1 DUP3 MSTORE PUSH1 0x37 SWAP1 DUP3 ADD MSTORE PUSH32 0x4D6178696D756D206E756D626572206F662063616E6469646174657320726561 PUSH1 0x40 DUP3 ADD MSTORE PUSH32 0x6368656420666F72207468697320656C656374696F6E2E000000000000000000 PUSH1 0x60 DUP3 ADD MSTORE PUSH1 0x80 ADD SWAP1 JUMP JUMPDEST PUSH1 0x20 DUP1 DUP3 MSTORE PUSH1 0x2E SWAP1 DUP3 ADD MSTORE PUSH32 0x546869732061646472657373206973206E6F7420726567697374657265642061 PUSH1 0x40 DUP3 ADD MSTORE PUSH14 0x3990309031B0B73234B230BA3297 PUSH1 0x91 SHL PUSH1 0x60 DUP3 ADD MSTORE PUSH1 0x80 ADD SWAP1 JUMP JUMPDEST SWAP1 DUP2 MSTORE PUSH1 0x20 ADD SWAP1 JUMP JUMPDEST PUSH1 0x0 DUP3 NOT DUP3 GT ISZERO PUSH2 0x9E1 JUMPI PUSH2 0x9E1 PUSH2 0xA01 JUMP JUMPDEST POP ADD SWAP1 JUMP JUMPDEST PUSH1 0x0 PUSH1 0x0 NOT DUP3 EQ ISZERO PUSH2 0x9FA JUMPI PUSH2 0x9FA PUSH2 0xA01 JUMP JUMPDEST POP PUSH1 0x1 ADD SWAP1 JUMP JUMPDEST PUSH4 0x4E487B71 PUSH1 0xE0 SHL PUSH1 0x0 MSTORE PUSH1 0x11 PUSH1 0x4 MSTORE PUSH1 0x24 PUSH1 0x0 REVERT INVALID LOG2 PUSH5 0x6970667358 0x22 SLT KECCAK256 SDIV SHR SHR 0x2D EXTCODEHASH 0xDB NOT DUP3 0xF7 0xC DUP3 ADD PUSH17 0x3568B891C61F85366A3BCDE79E70026F9A 0x23 0xBD PUSH5 0x736F6C6343 STOP ADDMOD STOP STOP CALLER ",
  "sha1": "c5456d12cf51c118a02b9d6896e9e3834d3476a7",
  "source": "// SPDX-License-Identifier: MIT\npragma solidity ^0.8.0;\n\n\ncontract Vote {\n    uint256 public constant MAX_NUMBER_CANDIDATES = 5;\n    uint256 public constant LENGTH_REGISTRATION_IN_BLOCKS = 20;\n    uint256 public constant LENGTH_VOTING_IN_BLOCKS = 50;\n\n    uint256 public startRegistration = 0;\n    uint256 public endRegistration = 0;\n    uint256 public endVoting = 0;\n\n    address[] voters;\n    address[] candidates;\n\n    mapping(address => bool) accountToHasVoted;\n    mapping(address => bool) accountToRegistration;\n    mapping(address => uint256) public accountToVotesReceived;\n\n    function initiateElection() public {\n        require(block.number > endVoting, \"Patience, the current voting is not over.\");\n\n        startRegistration = block.number;\n        endRegistration = block.number + LENGTH_REGISTRATION_IN_BLOCKS;\n        endVoting = endRegistration + LENGTH_VOTING_IN_BLOCKS;\n\n        resetMappings();\n        resetArrays();\n    }\n\n    function signupAsCandidate() public {\n        require(block.number <= endRegistration, \"You can no longer register as a candidate for this election.\");\n        require(candidates.length < MAX_NUMBER_CANDIDATES, \"Maximum number of candidates reached for this election.\");\n        require(!accountToRegistration[msg.sender], \"You are already registered as a candidate for this election.\");\n        \n        accountToRegistration[msg.sender] = true;\n        candidates.push(msg.sender);\n    }\n\n    function vote(address candidate) public {\n        require(block.number > endRegistration, \"Patience, the registration period is not over!\"); \n        require(block.number <= endVoting, \"The vote is over.\"); \n        require(accountToRegistration[candidate], \"This address is not registered as a candidate.\"); \n        require(!accountToHasVoted[msg.sender], \"You have already voted.\");\n\n        accountToHasVoted[msg.sender] = true;\n        accountToVotesReceived[candidate] += 1;\n        voters.push(msg.sender);\n    }\n\n    function getResults() public view returns (address[5] memory, uint256[5] memory) {\n        address[5]  memory candidates_;\n        uint256[5]  memory votes_;\n\n        for (uint256 i=0; i < candidates.length; i++) {\n            candidates_[i] = candidates[i];\n            votes_[i] = accountToVotesReceived[candidates[i]];\n   \n        }\n\n        return (candidates_, votes_);\n    }\n\n    function getNumberCandidates() public view returns (uint256) {\n        return candidates.length;\n    }\n\n    function resetMappings() internal {\n        for (uint256 i=0; i < candidates.length; i++) {\n            accountToRegistration[candidates[i]] = false;\n            accountToVotesReceived[candidates[i]] = 0;\n        }\n            \n        for (uint256 i=0; i < voters.length; i++) {\n            accountToHasVoted[voters[i]] = false;\n        }\n    }\n\n    function resetArrays() internal {\n        delete voters;\n        delete candidates;\n    }\n\n}",
  "sourcePath": "contracts/Vote.sol",
  "type": "contract"
}