{
  "abi": [
    {
      "inputs": [],
      "name": "LENGTH_REGISTRATION_IN_BLOCKS",
      "outputs": [
        {
          "internalType": "uint256",
          "name": "",
          "type": "uint256"
        }
      ],
      "stateMutability": "view",
      "type": "function"
    },
    {
      "inputs": [],
      "name": "LENGTH_VOTING_IN_BLOCKS",
      "outputs": [
        {
          "internalType": "uint256",
          "name": "",
          "type": "uint256"
        }
      ],
      "stateMutability": "view",
      "type": "function"
    },
    {
      "inputs": [],
      "name": "MAX_NUMBER_CANDIDATES",
      "outputs": [
        {
          "internalType": "uint256",
          "name": "",
          "type": "uint256"
        }
      ],
      "stateMutability": "view",
      "type": "function"
    },
    {
      "inputs": [
        {
          "internalType": "address",
          "name": "",
          "type": "address"
        }
      ],
      "name": "accountToVotesReceived",
      "outputs": [
        {
          "internalType": "uint256",
          "name": "",
          "type": "uint256"
        }
      ],
      "stateMutability": "view",
      "type": "function"
    },
    {
      "inputs": [],
      "name": "endRegistration",
      "outputs": [
        {
          "internalType": "uint256",
          "name": "",
          "type": "uint256"
        }
      ],
      "stateMutability": "view",
      "type": "function"
    },
    {
      "inputs": [],
      "name": "endVoting",
      "outputs": [
        {
          "internalType": "uint256",
          "name": "",
          "type": "uint256"
        }
      ],
      "stateMutability": "view",
      "type": "function"
    },
    {
      "inputs": [],
      "name": "getNumberCandidates",
      "outputs": [
        {
          "internalType": "uint256",
          "name": "",
          "type": "uint256"
        }
      ],
      "stateMutability": "view",
      "type": "function"
    },
    {
      "inputs": [],
      "name": "getResults",
      "outputs": [
        {
          "internalType": "address[5]",
          "name": "",
          "type": "address[5]"
        },
        {
          "internalType": "uint256[5]",
          "name": "",
          "type": "uint256[5]"
        }
      ],
      "stateMutability": "view",
      "type": "function"
    },
    {
      "inputs": [],
      "name": "initiateElection",
      "outputs": [],
      "stateMutability": "nonpayable",
      "type": "function"
    },
    {
      "inputs": [],
      "name": "signupAsCandidate",
      "outputs": [],
      "stateMutability": "nonpayable",
      "type": "function"
    },
    {
      "inputs": [
        {
          "internalType": "address",
          "name": "candidate",
          "type": "address"
        }
      ],
      "name": "vote",
      "outputs": [],
      "stateMutability": "nonpayable",
      "type": "function"
    }
  ],
  "bytecode": "608060405260008055600060015534801561001957600080fd5b50610b2c806100296000396000f3fe608060405234801561001057600080fd5b50600436106100a95760003560e01c8063493f584c11610071578063493f584c146101075780634a8a62ab1461010f57806358cb805b146101175780636dd7d8ea1461011f57806382e5dae514610132578063c3403ddf1461013a576100a9565b80630ff9e259146100ae5780631c599396146100b857806339df9932146100d65780633bdac454146100e95780634717f97c146100f1575b600080fd5b6100b6610142565b005b6100c061019d565b6040516100cd9190610aa4565b60405180910390f35b6100c06100e43660046106f1565b6101a2565b6100c06101b4565b6100f96101b9565b6040516100cd92919061071f565b6100c06102e4565b6100c06102ea565b6100c06102f0565b6100b661012d3660046106f1565b6102f5565b6100b661044d565b6100c061053e565b600154431161016c5760405162461bcd60e51b8152600401610163906108d2565b60405180910390fd5b610177601443610aad565b600081905561018890603290610aad565b600155610193610544565b61019b610689565b565b603281565b60066020526000908152604090205481565b601481565b6101c16106a1565b6101c96106a1565b6101d16106a1565b6101d96106a1565b60005b6003548110156102da576003818154811061020757634e487b7160e01b600052603260045260246000fd5b6000918252602090912001546001600160a01b031683826005811061023c57634e487b7160e01b600052603260045260246000fd5b60200201906001600160a01b031690816001600160a01b031681525050600660006003838154811061027e57634e487b7160e01b600052603260045260246000fd5b60009182526020808320909101546001600160a01b031683528201929092526040019020548282600581106102c357634e487b7160e01b600052603260045260246000fd5b6020020152806102d281610ac5565b9150506101dc565b5090925090509091565b60035490565b60005481565b600581565b60005443116103165760405162461bcd60e51b815260040161016390610884565b6001544311156103385760405162461bcd60e51b81526004016101639061091b565b3332146103575760405162461bcd60e51b8152600401610163906109a3565b6001600160a01b03811660009081526005602052604090205460ff1661038f5760405162461bcd60e51b815260040161016390610a56565b3360009081526004602052604090205460ff16156103bf5760405162461bcd60e51b815260040161016390610785565b336000908152600460209081526040808320805460ff191660019081179091556001600160a01b038516845260069092528220805491929091610403908490610aad565b9091555050600280546001810182556000919091527f405787fa12a823e0f2b7631cc41b3ba8828b3321ca811111fa75cd3aa3bb5ace0180546001600160a01b0319163317905550565b60005443111561046f5760405162461bcd60e51b815260040161016390610827565b6003546005116104915760405162461bcd60e51b8152600401610163906109f9565b3332146104b05760405162461bcd60e51b8152600401610163906107bc565b3360009081526005602052604090205460ff16156104e05760405162461bcd60e51b815260040161016390610946565b336000818152600560205260408120805460ff191660019081179091556003805491820181559091527fc2575a0e9e593c00f959f8c92f12db2869c3395a3b0502d05e2516446f71f85b0180546001600160a01b0319169091179055565b60015481565b60005b60035481101561060b576000600560006003848154811061057857634e487b7160e01b600052603260045260246000fd5b6000918252602080832091909101546001600160a01b031683528201929092526040018120805460ff191692151592909217909155600380546006918391859081106105d457634e487b7160e01b600052603260045260246000fd5b60009182526020808320909101546001600160a01b031683528201929092526040019020558061060381610ac5565b915050610547565b5060005b600254811015610686576000600460006002848154811061064057634e487b7160e01b600052603260045260246000fd5b6000918252602080832091909101546001600160a01b031683528201929092526040019020805460ff19169115159190911790558061067e81610ac5565b91505061060f565b50565b610695600260006106bf565b61019b600360006106bf565b6040518060a001604052806005906020820280368337509192915050565b508054600082559060005260206000209081019061068691905b808211156106ed57600081556001016106d9565b5090565b600060208284031215610702578081fd5b81356001600160a01b0381168114610718578182fd5b9392505050565b6101408101818460005b60058110156107515781516001600160a01b0316835260209283019290910190600101610729565b50505060a082018360005b600581101561077b57815183526020928301929091019060010161075c565b5050509392505050565b60208082526017908201527f596f75206861766520616c726561647920766f7465642e000000000000000000604082015260600190565b60208082526045908201527f4f6e6c792065787465726e616c6c79206f776e6564206163636f756e7473206860408201527f617665207468652072696768742072656769737465722061732063616e64696460608201526430ba32b99760d91b608082015260a00190565b6020808252603c908201527f596f752063616e206e6f206c6f6e67657220726567697374657220617320612060408201527f63616e64696461746520666f72207468697320656c656374696f6e2e00000000606082015260800190565b6020808252602e908201527f50617469656e63652c2074686520726567697374726174696f6e20706572696f60408201526d64206973206e6f74206f7665722160901b606082015260800190565b60208082526029908201527f50617469656e63652c207468652063757272656e7420766f74696e67206973206040820152683737ba1037bb32b91760b91b606082015260800190565b6020808252601190820152702a3432903b37ba329034b99037bb32b91760791b604082015260600190565b6020808252603c908201527f596f752061726520616c7265616479207265676973746572656420617320612060408201527f63616e64696461746520666f72207468697320656c656374696f6e2e00000000606082015260800190565b60208082526036908201527f4f6e6c792065787465726e616c6c79206f776e6564206163636f756e7473206860408201527530bb32903a3432903934b3b43a103a37903b37ba329760511b606082015260800190565b60208082526037908201527f4d6178696d756d206e756d626572206f662063616e646964617465732072656160408201527f6368656420666f72207468697320656c656374696f6e2e000000000000000000606082015260800190565b6020808252602e908201527f546869732061646472657373206973206e6f742072656769737465726564206160408201526d3990309031b0b73234b230ba329760911b606082015260800190565b90815260200190565b60008219821115610ac057610ac0610ae0565b500190565b6000600019821415610ad957610ad9610ae0565b5060010190565b634e487b7160e01b600052601160045260246000fdfea26469706673582212207756000bd6db03c042a6414dbd255f3c4d77786e84e47320902c02a38f02c90f64736f6c63430008000033",
  "bytecodeSha1": "e1307be4f5e0eb13466d06f0fa618e6839d10515",
  "compiler": {
    "evm_version": "istanbul",
    "optimizer": {
      "enabled": true,
      "runs": 200
    },
    "version": "0.8.0+commit.c7dfd78e"
  },
  "contractName": "Vote",
  "language": "Solidity",
  "natspec": {
    "kind": "dev",
    "methods": {},
    "version": 1
  },
  "opcodes": "PUSH1 0x80 PUSH1 0x40 MSTORE CALLVALUE DUP1 ISZERO PUSH2 0x10 JUMPI PUSH1 0x0 DUP1 REVERT JUMPDEST POP PUSH1 0x4 CALLDATASIZE LT PUSH2 0xA9 JUMPI PUSH1 0x0 CALLDATALOAD PUSH1 0xE0 SHR DUP1 PUSH4 0x493F584C GT PUSH2 0x71 JUMPI DUP1 PUSH4 0x493F584C EQ PUSH2 0x107 JUMPI DUP1 PUSH4 0x4A8A62AB EQ PUSH2 0x10F JUMPI DUP1 PUSH4 0x58CB805B EQ PUSH2 0x117 JUMPI DUP1 PUSH4 0x6DD7D8EA EQ PUSH2 0x11F JUMPI DUP1 PUSH4 0x82E5DAE5 EQ PUSH2 0x132 JUMPI DUP1 PUSH4 0xC3403DDF EQ PUSH2 0x13A JUMPI PUSH2 0xA9 JUMP JUMPDEST DUP1 PUSH4 0xFF9E259 EQ PUSH2 0xAE JUMPI DUP1 PUSH4 0x1C599396 EQ PUSH2 0xB8 JUMPI DUP1 PUSH4 0x39DF9932 EQ PUSH2 0xD6 JUMPI DUP1 PUSH4 0x3BDAC454 EQ PUSH2 0xE9 JUMPI DUP1 PUSH4 0x4717F97C EQ PUSH2 0xF1 JUMPI JUMPDEST PUSH1 0x0 DUP1 REVERT JUMPDEST PUSH2 0xB6 PUSH2 0x142 JUMP JUMPDEST STOP JUMPDEST PUSH2 0xC0 PUSH2 0x19D JUMP JUMPDEST PUSH1 0x40 MLOAD PUSH2 0xCD SWAP2 SWAP1 PUSH2 0xAA4 JUMP JUMPDEST PUSH1 0x40 MLOAD DUP1 SWAP2 SUB SWAP1 RETURN JUMPDEST PUSH2 0xC0 PUSH2 0xE4 CALLDATASIZE PUSH1 0x4 PUSH2 0x6F1 JUMP JUMPDEST PUSH2 0x1A2 JUMP JUMPDEST PUSH2 0xC0 PUSH2 0x1B4 JUMP JUMPDEST PUSH2 0xF9 PUSH2 0x1B9 JUMP JUMPDEST PUSH1 0x40 MLOAD PUSH2 0xCD SWAP3 SWAP2 SWAP1 PUSH2 0x71F JUMP JUMPDEST PUSH2 0xC0 PUSH2 0x2E4 JUMP JUMPDEST PUSH2 0xC0 PUSH2 0x2EA JUMP JUMPDEST PUSH2 0xC0 PUSH2 0x2F0 JUMP JUMPDEST PUSH2 0xB6 PUSH2 0x12D CALLDATASIZE PUSH1 0x4 PUSH2 0x6F1 JUMP JUMPDEST PUSH2 0x2F5 JUMP JUMPDEST PUSH2 0xB6 PUSH2 0x44D JUMP JUMPDEST PUSH2 0xC0 PUSH2 0x53E JUMP JUMPDEST PUSH1 0x1 SLOAD NUMBER GT PUSH2 0x16C JUMPI PUSH1 0x40 MLOAD PUSH3 0x461BCD PUSH1 0xE5 SHL DUP2 MSTORE PUSH1 0x4 ADD PUSH2 0x163 SWAP1 PUSH2 0x8D2 JUMP JUMPDEST PUSH1 0x40 MLOAD DUP1 SWAP2 SUB SWAP1 REVERT JUMPDEST PUSH2 0x177 PUSH1 0x14 NUMBER PUSH2 0xAAD JUMP JUMPDEST PUSH1 0x0 DUP2 SWAP1 SSTORE PUSH2 0x188 SWAP1 PUSH1 0x32 SWAP1 PUSH2 0xAAD JUMP JUMPDEST PUSH1 0x1 SSTORE PUSH2 0x193 PUSH2 0x544 JUMP JUMPDEST PUSH2 0x19B PUSH2 0x689 JUMP JUMPDEST JUMP JUMPDEST PUSH1 0x32 DUP2 JUMP JUMPDEST PUSH1 0x6 PUSH1 0x20 MSTORE PUSH1 0x0 SWAP1 DUP2 MSTORE PUSH1 0x40 SWAP1 KECCAK256 SLOAD DUP2 JUMP JUMPDEST PUSH1 0x14 DUP2 JUMP JUMPDEST PUSH2 0x1C1 PUSH2 0x6A1 JUMP JUMPDEST PUSH2 0x1C9 PUSH2 0x6A1 JUMP JUMPDEST PUSH2 0x1D1 PUSH2 0x6A1 JUMP JUMPDEST PUSH2 0x1D9 PUSH2 0x6A1 JUMP JUMPDEST PUSH1 0x0 JUMPDEST PUSH1 0x3 SLOAD DUP2 LT ISZERO PUSH2 0x2DA JUMPI PUSH1 0x3 DUP2 DUP2 SLOAD DUP2 LT PUSH2 0x207 JUMPI PUSH4 0x4E487B71 PUSH1 0xE0 SHL PUSH1 0x0 MSTORE PUSH1 0x32 PUSH1 0x4 MSTORE PUSH1 0x24 PUSH1 0x0 REVERT JUMPDEST PUSH1 0x0 SWAP2 DUP3 MSTORE PUSH1 0x20 SWAP1 SWAP2 KECCAK256 ADD SLOAD PUSH1 0x1 PUSH1 0x1 PUSH1 0xA0 SHL SUB AND DUP4 DUP3 PUSH1 0x5 DUP2 LT PUSH2 0x23C JUMPI PUSH4 0x4E487B71 PUSH1 0xE0 SHL PUSH1 0x0 MSTORE PUSH1 0x32 PUSH1 0x4 MSTORE PUSH1 0x24 PUSH1 0x0 REVERT JUMPDEST PUSH1 0x20 MUL ADD SWAP1 PUSH1 0x1 PUSH1 0x1 PUSH1 0xA0 SHL SUB AND SWAP1 DUP2 PUSH1 0x1 PUSH1 0x1 PUSH1 0xA0 SHL SUB AND DUP2 MSTORE POP POP PUSH1 0x6 PUSH1 0x0 PUSH1 0x3 DUP4 DUP2 SLOAD DUP2 LT PUSH2 0x27E JUMPI PUSH4 0x4E487B71 PUSH1 0xE0 SHL PUSH1 0x0 MSTORE PUSH1 0x32 PUSH1 0x4 MSTORE PUSH1 0x24 PUSH1 0x0 REVERT JUMPDEST PUSH1 0x0 SWAP2 DUP3 MSTORE PUSH1 0x20 DUP1 DUP4 KECCAK256 SWAP1 SWAP2 ADD SLOAD PUSH1 0x1 PUSH1 0x1 PUSH1 0xA0 SHL SUB AND DUP4 MSTORE DUP3 ADD SWAP3 SWAP1 SWAP3 MSTORE PUSH1 0x40 ADD SWAP1 KECCAK256 SLOAD DUP3 DUP3 PUSH1 0x5 DUP2 LT PUSH2 0x2C3 JUMPI PUSH4 0x4E487B71 PUSH1 0xE0 SHL PUSH1 0x0 MSTORE PUSH1 0x32 PUSH1 0x4 MSTORE PUSH1 0x24 PUSH1 0x0 REVERT JUMPDEST PUSH1 0x20 MUL ADD MSTORE DUP1 PUSH2 0x2D2 DUP2 PUSH2 0xAC5 JUMP JUMPDEST SWAP2 POP POP PUSH2 0x1DC JUMP JUMPDEST POP SWAP1 SWAP3 POP SWAP1 POP SWAP1 SWAP2 JUMP JUMPDEST PUSH1 0x3 SLOAD SWAP1 JUMP JUMPDEST PUSH1 0x0 SLOAD DUP2 JUMP JUMPDEST PUSH1 0x5 DUP2 JUMP JUMPDEST PUSH1 0x0 SLOAD NUMBER GT PUSH2 0x316 JUMPI PUSH1 0x40 MLOAD PUSH3 0x461BCD PUSH1 0xE5 SHL DUP2 MSTORE PUSH1 0x4 ADD PUSH2 0x163 SWAP1 PUSH2 0x884 JUMP JUMPDEST PUSH1 0x1 SLOAD NUMBER GT ISZERO PUSH2 0x338 JUMPI PUSH1 0x40 MLOAD PUSH3 0x461BCD PUSH1 0xE5 SHL DUP2 MSTORE PUSH1 0x4 ADD PUSH2 0x163 SWAP1 PUSH2 0x91B JUMP JUMPDEST CALLER ORIGIN EQ PUSH2 0x357 JUMPI PUSH1 0x40 MLOAD PUSH3 0x461BCD PUSH1 0xE5 SHL DUP2 MSTORE PUSH1 0x4 ADD PUSH2 0x163 SWAP1 PUSH2 0x9A3 JUMP JUMPDEST PUSH1 0x1 PUSH1 0x1 PUSH1 0xA0 SHL SUB DUP2 AND PUSH1 0x0 SWAP1 DUP2 MSTORE PUSH1 0x5 PUSH1 0x20 MSTORE PUSH1 0x40 SWAP1 KECCAK256 SLOAD PUSH1 0xFF AND PUSH2 0x38F JUMPI PUSH1 0x40 MLOAD PUSH3 0x461BCD PUSH1 0xE5 SHL DUP2 MSTORE PUSH1 0x4 ADD PUSH2 0x163 SWAP1 PUSH2 0xA56 JUMP JUMPDEST CALLER PUSH1 0x0 SWAP1 DUP2 MSTORE PUSH1 0x4 PUSH1 0x20 MSTORE PUSH1 0x40 SWAP1 KECCAK256 SLOAD PUSH1 0xFF AND ISZERO PUSH2 0x3BF JUMPI PUSH1 0x40 MLOAD PUSH3 0x461BCD PUSH1 0xE5 SHL DUP2 MSTORE PUSH1 0x4 ADD PUSH2 0x163 SWAP1 PUSH2 0x785 JUMP JUMPDEST CALLER PUSH1 0x0 SWAP1 DUP2 MSTORE PUSH1 0x4 PUSH1 0x20 SWAP1 DUP2 MSTORE PUSH1 0x40 DUP1 DUP4 KECCAK256 DUP1 SLOAD PUSH1 0xFF NOT AND PUSH1 0x1 SWAP1 DUP2 OR SWAP1 SWAP2 SSTORE PUSH1 0x1 PUSH1 0x1 PUSH1 0xA0 SHL SUB DUP6 AND DUP5 MSTORE PUSH1 0x6 SWAP1 SWAP3 MSTORE DUP3 KECCAK256 DUP1 SLOAD SWAP2 SWAP3 SWAP1 SWAP2 PUSH2 0x403 SWAP1 DUP5 SWAP1 PUSH2 0xAAD JUMP JUMPDEST SWAP1 SWAP2 SSTORE POP POP PUSH1 0x2 DUP1 SLOAD PUSH1 0x1 DUP2 ADD DUP3 SSTORE PUSH1 0x0 SWAP2 SWAP1 SWAP2 MSTORE PUSH32 0x405787FA12A823E0F2B7631CC41B3BA8828B3321CA811111FA75CD3AA3BB5ACE ADD DUP1 SLOAD PUSH1 0x1 PUSH1 0x1 PUSH1 0xA0 SHL SUB NOT AND CALLER OR SWAP1 SSTORE POP JUMP JUMPDEST PUSH1 0x0 SLOAD NUMBER GT ISZERO PUSH2 0x46F JUMPI PUSH1 0x40 MLOAD PUSH3 0x461BCD PUSH1 0xE5 SHL DUP2 MSTORE PUSH1 0x4 ADD PUSH2 0x163 SWAP1 PUSH2 0x827 JUMP JUMPDEST PUSH1 0x3 SLOAD PUSH1 0x5 GT PUSH2 0x491 JUMPI PUSH1 0x40 MLOAD PUSH3 0x461BCD PUSH1 0xE5 SHL DUP2 MSTORE PUSH1 0x4 ADD PUSH2 0x163 SWAP1 PUSH2 0x9F9 JUMP JUMPDEST CALLER ORIGIN EQ PUSH2 0x4B0 JUMPI PUSH1 0x40 MLOAD PUSH3 0x461BCD PUSH1 0xE5 SHL DUP2 MSTORE PUSH1 0x4 ADD PUSH2 0x163 SWAP1 PUSH2 0x7BC JUMP JUMPDEST CALLER PUSH1 0x0 SWAP1 DUP2 MSTORE PUSH1 0x5 PUSH1 0x20 MSTORE PUSH1 0x40 SWAP1 KECCAK256 SLOAD PUSH1 0xFF AND ISZERO PUSH2 0x4E0 JUMPI PUSH1 0x40 MLOAD PUSH3 0x461BCD PUSH1 0xE5 SHL DUP2 MSTORE PUSH1 0x4 ADD PUSH2 0x163 SWAP1 PUSH2 0x946 JUMP JUMPDEST CALLER PUSH1 0x0 DUP2 DUP2 MSTORE PUSH1 0x5 PUSH1 0x20 MSTORE PUSH1 0x40 DUP2 KECCAK256 DUP1 SLOAD PUSH1 0xFF NOT AND PUSH1 0x1 SWAP1 DUP2 OR SWAP1 SWAP2 SSTORE PUSH1 0x3 DUP1 SLOAD SWAP2 DUP3 ADD DUP2 SSTORE SWAP1 SWAP2 MSTORE PUSH32 0xC2575A0E9E593C00F959F8C92F12DB2869C3395A3B0502D05E2516446F71F85B ADD DUP1 SLOAD PUSH1 0x1 PUSH1 0x1 PUSH1 0xA0 SHL SUB NOT AND SWAP1 SWAP2 OR SWAP1 SSTORE JUMP JUMPDEST PUSH1 0x1 SLOAD DUP2 JUMP JUMPDEST PUSH1 0x0 JUMPDEST PUSH1 0x3 SLOAD DUP2 LT ISZERO PUSH2 0x60B JUMPI PUSH1 0x0 PUSH1 0x5 PUSH1 0x0 PUSH1 0x3 DUP5 DUP2 SLOAD DUP2 LT PUSH2 0x578 JUMPI PUSH4 0x4E487B71 PUSH1 0xE0 SHL PUSH1 0x0 MSTORE PUSH1 0x32 PUSH1 0x4 MSTORE PUSH1 0x24 PUSH1 0x0 REVERT JUMPDEST PUSH1 0x0 SWAP2 DUP3 MSTORE PUSH1 0x20 DUP1 DUP4 KECCAK256 SWAP2 SWAP1 SWAP2 ADD SLOAD PUSH1 0x1 PUSH1 0x1 PUSH1 0xA0 SHL SUB AND DUP4 MSTORE DUP3 ADD SWAP3 SWAP1 SWAP3 MSTORE PUSH1 0x40 ADD DUP2 KECCAK256 DUP1 SLOAD PUSH1 0xFF NOT AND SWAP3 ISZERO ISZERO SWAP3 SWAP1 SWAP3 OR SWAP1 SWAP2 SSTORE PUSH1 0x3 DUP1 SLOAD PUSH1 0x6 SWAP2 DUP4 SWAP2 DUP6 SWAP1 DUP2 LT PUSH2 0x5D4 JUMPI PUSH4 0x4E487B71 PUSH1 0xE0 SHL PUSH1 0x0 MSTORE PUSH1 0x32 PUSH1 0x4 MSTORE PUSH1 0x24 PUSH1 0x0 REVERT JUMPDEST PUSH1 0x0 SWAP2 DUP3 MSTORE PUSH1 0x20 DUP1 DUP4 KECCAK256 SWAP1 SWAP2 ADD SLOAD PUSH1 0x1 PUSH1 0x1 PUSH1 0xA0 SHL SUB AND DUP4 MSTORE DUP3 ADD SWAP3 SWAP1 SWAP3 MSTORE PUSH1 0x40 ADD SWAP1 KECCAK256 SSTORE DUP1 PUSH2 0x603 DUP2 PUSH2 0xAC5 JUMP JUMPDEST SWAP2 POP POP PUSH2 0x547 JUMP JUMPDEST POP PUSH1 0x0 JUMPDEST PUSH1 0x2 SLOAD DUP2 LT ISZERO PUSH2 0x686 JUMPI PUSH1 0x0 PUSH1 0x4 PUSH1 0x0 PUSH1 0x2 DUP5 DUP2 SLOAD DUP2 LT PUSH2 0x640 JUMPI PUSH4 0x4E487B71 PUSH1 0xE0 SHL PUSH1 0x0 MSTORE PUSH1 0x32 PUSH1 0x4 MSTORE PUSH1 0x24 PUSH1 0x0 REVERT JUMPDEST PUSH1 0x0 SWAP2 DUP3 MSTORE PUSH1 0x20 DUP1 DUP4 KECCAK256 SWAP2 SWAP1 SWAP2 ADD SLOAD PUSH1 0x1 PUSH1 0x1 PUSH1 0xA0 SHL SUB AND DUP4 MSTORE DUP3 ADD SWAP3 SWAP1 SWAP3 MSTORE PUSH1 0x40 ADD SWAP1 KECCAK256 DUP1 SLOAD PUSH1 0xFF NOT AND SWAP2 ISZERO ISZERO SWAP2 SWAP1 SWAP2 OR SWAP1 SSTORE DUP1 PUSH2 0x67E DUP2 PUSH2 0xAC5 JUMP JUMPDEST SWAP2 POP POP PUSH2 0x60F JUMP JUMPDEST POP JUMP JUMPDEST PUSH2 0x695 PUSH1 0x2 PUSH1 0x0 PUSH2 0x6BF JUMP JUMPDEST PUSH2 0x19B PUSH1 0x3 PUSH1 0x0 PUSH2 0x6BF JUMP JUMPDEST PUSH1 0x40 MLOAD DUP1 PUSH1 0xA0 ADD PUSH1 0x40 MSTORE DUP1 PUSH1 0x5 SWAP1 PUSH1 0x20 DUP3 MUL DUP1 CALLDATASIZE DUP4 CALLDATACOPY POP SWAP2 SWAP3 SWAP2 POP POP JUMP JUMPDEST POP DUP1 SLOAD PUSH1 0x0 DUP3 SSTORE SWAP1 PUSH1 0x0 MSTORE PUSH1 0x20 PUSH1 0x0 KECCAK256 SWAP1 DUP2 ADD SWAP1 PUSH2 0x686 SWAP2 SWAP1 JUMPDEST DUP1 DUP3 GT ISZERO PUSH2 0x6ED JUMPI PUSH1 0x0 DUP2 SSTORE PUSH1 0x1 ADD PUSH2 0x6D9 JUMP JUMPDEST POP SWAP1 JUMP JUMPDEST PUSH1 0x0 PUSH1 0x20 DUP3 DUP5 SUB SLT ISZERO PUSH2 0x702 JUMPI DUP1 DUP2 REVERT JUMPDEST DUP2 CALLDATALOAD PUSH1 0x1 PUSH1 0x1 PUSH1 0xA0 SHL SUB DUP2 AND DUP2 EQ PUSH2 0x718 JUMPI DUP2 DUP3 REVERT JUMPDEST SWAP4 SWAP3 POP POP POP JUMP JUMPDEST PUSH2 0x140 DUP2 ADD DUP2 DUP5 PUSH1 0x0 JUMPDEST PUSH1 0x5 DUP2 LT ISZERO PUSH2 0x751 JUMPI DUP2 MLOAD PUSH1 0x1 PUSH1 0x1 PUSH1 0xA0 SHL SUB AND DUP4 MSTORE PUSH1 0x20 SWAP3 DUP4 ADD SWAP3 SWAP1 SWAP2 ADD SWAP1 PUSH1 0x1 ADD PUSH2 0x729 JUMP JUMPDEST POP POP POP PUSH1 0xA0 DUP3 ADD DUP4 PUSH1 0x0 JUMPDEST PUSH1 0x5 DUP2 LT ISZERO PUSH2 0x77B JUMPI DUP2 MLOAD DUP4 MSTORE PUSH1 0x20 SWAP3 DUP4 ADD SWAP3 SWAP1 SWAP2 ADD SWAP1 PUSH1 0x1 ADD PUSH2 0x75C JUMP JUMPDEST POP POP POP SWAP4 SWAP3 POP POP POP JUMP JUMPDEST PUSH1 0x20 DUP1 DUP3 MSTORE PUSH1 0x17 SWAP1 DUP3 ADD MSTORE PUSH32 0x596F75206861766520616C726561647920766F7465642E000000000000000000 PUSH1 0x40 DUP3 ADD MSTORE PUSH1 0x60 ADD SWAP1 JUMP JUMPDEST PUSH1 0x20 DUP1 DUP3 MSTORE PUSH1 0x45 SWAP1 DUP3 ADD MSTORE PUSH32 0x4F6E6C792065787465726E616C6C79206F776E6564206163636F756E74732068 PUSH1 0x40 DUP3 ADD MSTORE PUSH32 0x617665207468652072696768742072656769737465722061732063616E646964 PUSH1 0x60 DUP3 ADD MSTORE PUSH5 0x30BA32B997 PUSH1 0xD9 SHL PUSH1 0x80 DUP3 ADD MSTORE PUSH1 0xA0 ADD SWAP1 JUMP JUMPDEST PUSH1 0x20 DUP1 DUP3 MSTORE PUSH1 0x3C SWAP1 DUP3 ADD MSTORE PUSH32 0x596F752063616E206E6F206C6F6E676572207265676973746572206173206120 PUSH1 0x40 DUP3 ADD MSTORE PUSH32 0x63616E64696461746520666F72207468697320656C656374696F6E2E00000000 PUSH1 0x60 DUP3 ADD MSTORE PUSH1 0x80 ADD SWAP1 JUMP JUMPDEST PUSH1 0x20 DUP1 DUP3 MSTORE PUSH1 0x2E SWAP1 DUP3 ADD MSTORE PUSH32 0x50617469656E63652C2074686520726567697374726174696F6E20706572696F PUSH1 0x40 DUP3 ADD MSTORE PUSH14 0x64206973206E6F74206F76657221 PUSH1 0x90 SHL PUSH1 0x60 DUP3 ADD MSTORE PUSH1 0x80 ADD SWAP1 JUMP JUMPDEST PUSH1 0x20 DUP1 DUP3 MSTORE PUSH1 0x29 SWAP1 DUP3 ADD MSTORE PUSH32 0x50617469656E63652C207468652063757272656E7420766F74696E6720697320 PUSH1 0x40 DUP3 ADD MSTORE PUSH9 0x3737BA1037BB32B917 PUSH1 0xB9 SHL PUSH1 0x60 DUP3 ADD MSTORE PUSH1 0x80 ADD SWAP1 JUMP JUMPDEST PUSH1 0x20 DUP1 DUP3 MSTORE PUSH1 0x11 SWAP1 DUP3 ADD MSTORE PUSH17 0x2A3432903B37BA329034B99037BB32B917 PUSH1 0x79 SHL PUSH1 0x40 DUP3 ADD MSTORE PUSH1 0x60 ADD SWAP1 JUMP JUMPDEST PUSH1 0x20 DUP1 DUP3 MSTORE PUSH1 0x3C SWAP1 DUP3 ADD MSTORE PUSH32 0x596F752061726520616C72656164792072656769737465726564206173206120 PUSH1 0x40 DUP3 ADD MSTORE PUSH32 0x63616E64696461746520666F72207468697320656C656374696F6E2E00000000 PUSH1 0x60 DUP3 ADD MSTORE PUSH1 0x80 ADD SWAP1 JUMP JUMPDEST PUSH1 0x20 DUP1 DUP3 MSTORE PUSH1 0x36 SWAP1 DUP3 ADD MSTORE PUSH32 0x4F6E6C792065787465726E616C6C79206F776E6564206163636F756E74732068 PUSH1 0x40 DUP3 ADD MSTORE PUSH22 0x30BB32903A3432903934B3B43A103A37903B37BA3297 PUSH1 0x51 SHL PUSH1 0x60 DUP3 ADD MSTORE PUSH1 0x80 ADD SWAP1 JUMP JUMPDEST PUSH1 0x20 DUP1 DUP3 MSTORE PUSH1 0x37 SWAP1 DUP3 ADD MSTORE PUSH32 0x4D6178696D756D206E756D626572206F662063616E6469646174657320726561 PUSH1 0x40 DUP3 ADD MSTORE PUSH32 0x6368656420666F72207468697320656C656374696F6E2E000000000000000000 PUSH1 0x60 DUP3 ADD MSTORE PUSH1 0x80 ADD SWAP1 JUMP JUMPDEST PUSH1 0x20 DUP1 DUP3 MSTORE PUSH1 0x2E SWAP1 DUP3 ADD MSTORE PUSH32 0x546869732061646472657373206973206E6F7420726567697374657265642061 PUSH1 0x40 DUP3 ADD MSTORE PUSH14 0x3990309031B0B73234B230BA3297 PUSH1 0x91 SHL PUSH1 0x60 DUP3 ADD MSTORE PUSH1 0x80 ADD SWAP1 JUMP JUMPDEST SWAP1 DUP2 MSTORE PUSH1 0x20 ADD SWAP1 JUMP JUMPDEST PUSH1 0x0 DUP3 NOT DUP3 GT ISZERO PUSH2 0xAC0 JUMPI PUSH2 0xAC0 PUSH2 0xAE0 JUMP JUMPDEST POP ADD SWAP1 JUMP JUMPDEST PUSH1 0x0 PUSH1 0x0 NOT DUP3 EQ ISZERO PUSH2 0xAD9 JUMPI PUSH2 0xAD9 PUSH2 0xAE0 JUMP JUMPDEST POP PUSH1 0x1 ADD SWAP1 JUMP JUMPDEST PUSH4 0x4E487B71 PUSH1 0xE0 SHL PUSH1 0x0 MSTORE PUSH1 0x11 PUSH1 0x4 MSTORE PUSH1 0x24 PUSH1 0x0 REVERT INVALID LOG2 PUSH5 0x6970667358 0x22 SLT KECCAK256 PUSH24 0x56000BD6DB03C042A6414DBD255F3C4D77786E84E4732090 0x2C MUL LOG3 DUP16 MUL 0xC9 0xF PUSH5 0x736F6C6343 STOP ADDMOD STOP STOP CALLER ",
  "sha1": "43740546cb231a8ec7501dab5915d5cc73161b2e",
  "source": "// SPDX-License-Identifier: MIT\npragma solidity ^0.8.0;\n\n\ncontract Vote {\n    uint256 public constant MAX_NUMBER_CANDIDATES = 5;\n    uint256 public constant LENGTH_REGISTRATION_IN_BLOCKS = 20;\n    uint256 public constant LENGTH_VOTING_IN_BLOCKS = 50;\n\n    uint256 public endRegistration = 0;\n    uint256 public endVoting = 0;\n\n    address[] voters;\n    address[] candidates;\n\n    mapping(address => bool) accountToHasVoted;\n    mapping(address => bool) accountToRegistration;\n    mapping(address => uint256) public accountToVotesReceived;\n\n    function initiateElection() public {\n        require(block.number > endVoting, \"Patience, the current voting is not over.\");\n\n        endRegistration = block.number + LENGTH_REGISTRATION_IN_BLOCKS;\n        endVoting = endRegistration + LENGTH_VOTING_IN_BLOCKS;\n\n        resetMappings();\n        resetArrays();\n    }\n\n    function signupAsCandidate() public {\n        require(block.number <= endRegistration, \"You can no longer register as a candidate for this election.\");\n        require(candidates.length < MAX_NUMBER_CANDIDATES, \"Maximum number of candidates reached for this election.\");\n        require(msg.sender == tx.origin, \"Only externally owned accounts have the right register as candidates.\");\n        require(!accountToRegistration[msg.sender], \"You are already registered as a candidate for this election.\");\n        \n        accountToRegistration[msg.sender] = true;\n        candidates.push(msg.sender);\n    }\n\n    function vote(address candidate) public {\n        require(block.number > endRegistration, \"Patience, the registration period is not over!\"); \n        require(block.number <= endVoting, \"The vote is over.\"); \n        require(msg.sender == tx.origin, \"Only externally owned accounts have the right to vote.\");\n        require(accountToRegistration[candidate], \"This address is not registered as a candidate.\"); \n        require(!accountToHasVoted[msg.sender], \"You have already voted.\");\n\n        accountToHasVoted[msg.sender] = true;\n        accountToVotesReceived[candidate] += 1;\n        voters.push(msg.sender);\n    }\n\n    function getResults() public view returns (address[MAX_NUMBER_CANDIDATES] memory, uint256[MAX_NUMBER_CANDIDATES] memory) {\n        address[MAX_NUMBER_CANDIDATES]  memory candidates_;\n        uint256[MAX_NUMBER_CANDIDATES]  memory votes_;\n\n        for (uint256 i=0; i < candidates.length; i++) {\n            candidates_[i] = candidates[i];\n            votes_[i] = accountToVotesReceived[candidates[i]];\n        }\n\n        return (candidates_, votes_);\n    }\n\n    function getNumberCandidates() public view returns (uint256) {\n        return candidates.length;\n    }\n\n    function resetMappings() internal {\n        for (uint256 i=0; i < candidates.length; i++) {\n            accountToRegistration[candidates[i]] = false;\n            accountToVotesReceived[candidates[i]] = 0;\n        }\n            \n        for (uint256 i=0; i < voters.length; i++) {\n            accountToHasVoted[voters[i]] = false;\n        }\n    }\n\n    function resetArrays() internal {\n        delete voters;\n        delete candidates;\n    }\n\n}\n",
  "sourcePath": "contracts/Vote.sol",
  "type": "contract"
}